{
  "_format": "hh-sol-artifact-1",
  "contractName": "RoboPunksNFT",
  "sourceName": "contracts/RoboPunksNFT.sol",
  "abi": [
    {
      "inputs": [],
      "stateMutability": "payable",
      "type": "constructor"
    },
    {
      "anonymous": false,
      "inputs": [
        {
          "indexed": true,
          "internalType": "address",
          "name": "owner",
          "type": "address"
        },
        {
          "indexed": true,
          "internalType": "address",
          "name": "approved",
          "type": "address"
        },
        {
          "indexed": true,
          "internalType": "uint256",
          "name": "tokenId",
          "type": "uint256"
        }
      ],
      "name": "Approval",
      "type": "event"
    },
    {
      "anonymous": false,
      "inputs": [
        {
          "indexed": true,
          "internalType": "address",
          "name": "owner",
          "type": "address"
        },
        {
          "indexed": true,
          "internalType": "address",
          "name": "operator",
          "type": "address"
        },
        {
          "indexed": false,
          "internalType": "bool",
          "name": "approved",
          "type": "bool"
        }
      ],
      "name": "ApprovalForAll",
      "type": "event"
    },
    {
      "anonymous": false,
      "inputs": [
        {
          "indexed": true,
          "internalType": "address",
          "name": "previousOwner",
          "type": "address"
        },
        {
          "indexed": true,
          "internalType": "address",
          "name": "newOwner",
          "type": "address"
        }
      ],
      "name": "OwnershipTransferred",
      "type": "event"
    },
    {
      "anonymous": false,
      "inputs": [
        {
          "indexed": true,
          "internalType": "address",
          "name": "from",
          "type": "address"
        },
        {
          "indexed": true,
          "internalType": "address",
          "name": "to",
          "type": "address"
        },
        {
          "indexed": true,
          "internalType": "uint256",
          "name": "tokenId",
          "type": "uint256"
        }
      ],
      "name": "Transfer",
      "type": "event"
    },
    {
      "inputs": [
        {
          "internalType": "address",
          "name": "to",
          "type": "address"
        },
        {
          "internalType": "uint256",
          "name": "tokenId",
          "type": "uint256"
        }
      ],
      "name": "approve",
      "outputs": [],
      "stateMutability": "nonpayable",
      "type": "function"
    },
    {
      "inputs": [
        {
          "internalType": "address",
          "name": "owner",
          "type": "address"
        }
      ],
      "name": "balanceOf",
      "outputs": [
        {
          "internalType": "uint256",
          "name": "",
          "type": "uint256"
        }
      ],
      "stateMutability": "view",
      "type": "function"
    },
    {
      "inputs": [
        {
          "internalType": "uint256",
          "name": "tokenId",
          "type": "uint256"
        }
      ],
      "name": "getApproved",
      "outputs": [
        {
          "internalType": "address",
          "name": "",
          "type": "address"
        }
      ],
      "stateMutability": "view",
      "type": "function"
    },
    {
      "inputs": [
        {
          "internalType": "address",
          "name": "owner",
          "type": "address"
        },
        {
          "internalType": "address",
          "name": "operator",
          "type": "address"
        }
      ],
      "name": "isApprovedForAll",
      "outputs": [
        {
          "internalType": "bool",
          "name": "",
          "type": "bool"
        }
      ],
      "stateMutability": "view",
      "type": "function"
    },
    {
      "inputs": [],
      "name": "isPublicMintEnabled",
      "outputs": [
        {
          "internalType": "bool",
          "name": "",
          "type": "bool"
        }
      ],
      "stateMutability": "view",
      "type": "function"
    },
    {
      "inputs": [],
      "name": "maxPerWallet",
      "outputs": [
        {
          "internalType": "uint256",
          "name": "",
          "type": "uint256"
        }
      ],
      "stateMutability": "view",
      "type": "function"
    },
    {
      "inputs": [],
      "name": "maxSupply",
      "outputs": [
        {
          "internalType": "uint256",
          "name": "",
          "type": "uint256"
        }
      ],
      "stateMutability": "view",
      "type": "function"
    },
    {
      "inputs": [
        {
          "internalType": "uint256",
          "name": "_quantity",
          "type": "uint256"
        }
      ],
      "name": "mint",
      "outputs": [],
      "stateMutability": "payable",
      "type": "function"
    },
    {
      "inputs": [],
      "name": "mintPrice",
      "outputs": [
        {
          "internalType": "uint256",
          "name": "",
          "type": "uint256"
        }
      ],
      "stateMutability": "view",
      "type": "function"
    },
    {
      "inputs": [],
      "name": "name",
      "outputs": [
        {
          "internalType": "string",
          "name": "",
          "type": "string"
        }
      ],
      "stateMutability": "view",
      "type": "function"
    },
    {
      "inputs": [],
      "name": "owner",
      "outputs": [
        {
          "internalType": "address",
          "name": "",
          "type": "address"
        }
      ],
      "stateMutability": "view",
      "type": "function"
    },
    {
      "inputs": [
        {
          "internalType": "uint256",
          "name": "tokenId",
          "type": "uint256"
        }
      ],
      "name": "ownerOf",
      "outputs": [
        {
          "internalType": "address",
          "name": "",
          "type": "address"
        }
      ],
      "stateMutability": "view",
      "type": "function"
    },
    {
      "inputs": [],
      "name": "renounceOwnership",
      "outputs": [],
      "stateMutability": "nonpayable",
      "type": "function"
    },
    {
      "inputs": [
        {
          "internalType": "address",
          "name": "from",
          "type": "address"
        },
        {
          "internalType": "address",
          "name": "to",
          "type": "address"
        },
        {
          "internalType": "uint256",
          "name": "tokenId",
          "type": "uint256"
        }
      ],
      "name": "safeTransferFrom",
      "outputs": [],
      "stateMutability": "nonpayable",
      "type": "function"
    },
    {
      "inputs": [
        {
          "internalType": "address",
          "name": "from",
          "type": "address"
        },
        {
          "internalType": "address",
          "name": "to",
          "type": "address"
        },
        {
          "internalType": "uint256",
          "name": "tokenId",
          "type": "uint256"
        },
        {
          "internalType": "bytes",
          "name": "data",
          "type": "bytes"
        }
      ],
      "name": "safeTransferFrom",
      "outputs": [],
      "stateMutability": "nonpayable",
      "type": "function"
    },
    {
      "inputs": [
        {
          "internalType": "address",
          "name": "operator",
          "type": "address"
        },
        {
          "internalType": "bool",
          "name": "approved",
          "type": "bool"
        }
      ],
      "name": "setApprovalForAll",
      "outputs": [],
      "stateMutability": "nonpayable",
      "type": "function"
    },
    {
      "inputs": [
        {
          "internalType": "string",
          "name": "_baseTokenUri",
          "type": "string"
        }
      ],
      "name": "setbaseTokenUri",
      "outputs": [],
      "stateMutability": "nonpayable",
      "type": "function"
    },
    {
      "inputs": [
        {
          "internalType": "bool",
          "name": "_isPublicMintEnabled",
          "type": "bool"
        }
      ],
      "name": "setisPublicMintEnabled",
      "outputs": [],
      "stateMutability": "nonpayable",
      "type": "function"
    },
    {
      "inputs": [
        {
          "internalType": "bytes4",
          "name": "interfaceId",
          "type": "bytes4"
        }
      ],
      "name": "supportsInterface",
      "outputs": [
        {
          "internalType": "bool",
          "name": "",
          "type": "bool"
        }
      ],
      "stateMutability": "view",
      "type": "function"
    },
    {
      "inputs": [],
      "name": "symbol",
      "outputs": [
        {
          "internalType": "string",
          "name": "",
          "type": "string"
        }
      ],
      "stateMutability": "view",
      "type": "function"
    },
    {
      "inputs": [
        {
          "internalType": "uint256",
          "name": "_tokenID",
          "type": "uint256"
        }
      ],
      "name": "tokenURI",
      "outputs": [
        {
          "internalType": "string",
          "name": "",
          "type": "string"
        }
      ],
      "stateMutability": "view",
      "type": "function"
    },
    {
      "inputs": [],
      "name": "totalSupply",
      "outputs": [
        {
          "internalType": "uint256",
          "name": "",
          "type": "uint256"
        }
      ],
      "stateMutability": "view",
      "type": "function"
    },
    {
      "inputs": [
        {
          "internalType": "address",
          "name": "from",
          "type": "address"
        },
        {
          "internalType": "address",
          "name": "to",
          "type": "address"
        },
        {
          "internalType": "uint256",
          "name": "tokenId",
          "type": "uint256"
        }
      ],
      "name": "transferFrom",
      "outputs": [],
      "stateMutability": "nonpayable",
      "type": "function"
    },
    {
      "inputs": [
        {
          "internalType": "address",
          "name": "newOwner",
          "type": "address"
        }
      ],
      "name": "transferOwnership",
      "outputs": [],
      "stateMutability": "nonpayable",
      "type": "function"
    },
    {
      "inputs": [
        {
          "internalType": "address",
          "name": "",
          "type": "address"
        }
      ],
      "name": "walletMints",
      "outputs": [
        {
          "internalType": "uint256",
          "name": "",
          "type": "uint256"
        }
      ],
      "stateMutability": "view",
      "type": "function"
    },
    {
      "inputs": [],
      "name": "withdraw",
      "outputs": [],
      "stateMutability": "nonpayable",
      "type": "function"
    },
    {
      "inputs": [],
      "name": "withdrawWallet",
      "outputs": [
        {
          "internalType": "address payable",
          "name": "",
          "type": "address"
        }
      ],
      "stateMutability": "view",
      "type": "function"
    }
  ],
  "bytecode": "0x60806040526040518060400160405280600981526020017f526f626f50756e6b7300000000000000000000000000000000000000000000008152506040518060400160405280600281526020017f5250000000000000000000000000000000000000000000000000000000000000815250816000908051906020019062000088929190620001bf565b508060019080519060200190620000a1929190620001bf565b505050620000c4620000b8620000f160201b60201c565b620000f960201b60201c565b66470de4df82000060078190555060006008819055506103e86009819055506003600a81905550620002d4565b600033905090565b6000600660009054906101000a900473ffffffffffffffffffffffffffffffffffffffff16905081600660006101000a81548173ffffffffffffffffffffffffffffffffffffffff021916908373ffffffffffffffffffffffffffffffffffffffff1602179055508173ffffffffffffffffffffffffffffffffffffffff168173ffffffffffffffffffffffffffffffffffffffff167f8be0079c531659141344cd1fd0a4f28419497f9722a3daafe3b4186f6b6457e060405160405180910390a35050565b828054620001cd906200026f565b90600052602060002090601f016020900481019282620001f157600085556200023d565b82601f106200020c57805160ff19168380011785556200023d565b828001600101855582156200023d579182015b828111156200023c5782518255916020019190600101906200021f565b5b5090506200024c919062000250565b5090565b5b808211156200026b57600081600090555060010162000251565b5090565b600060028204905060018216806200028857607f821691505b602082108114156200029f576200029e620002a5565b5b50919050565b7f4e487b7100000000000000000000000000000000000000000000000000000000600052602260045260246000fd5b61348780620002e46000396000f3fe60806040526004361061019c5760003560e01c806370a08231116100ec578063b88d4fde1161008a578063d5abeb0111610064578063d5abeb0114610593578063e985e9c5146105be578063f0293fd3146105fb578063f2fde38b146106385761019c565b8063b88d4fde14610504578063b90aebe21461052d578063c87b56dd146105565761019c565b80638da5cb5b116100c65780638da5cb5b1461046957806395d89b4114610494578063a0712d68146104bf578063a22cb465146104db5761019c565b806370a08231146103ea578063715018a61461042757806385d178f41461043e5761019c565b806318160ddd1161015957806342842e0e1161013357806342842e0e1461032e578063453c2310146103575780636352211e146103825780636817c76c146103bf5761019c565b806318160ddd146102c357806323b872dd146102ee5780633ccfd60b146103175761019c565b80630116bc2d146101a157806301ffc9a7146101cc57806306fdde0314610209578063081812fc146102345780630943d07414610271578063095ea7b31461029a575b600080fd5b3480156101ad57600080fd5b506101b6610661565b6040516101c39190612849565b60405180910390f35b3480156101d857600080fd5b506101f360048036038101906101ee9190612272565b610674565b6040516102009190612849565b60405180910390f35b34801561021557600080fd5b5061021e610756565b60405161022b9190612864565b60405180910390f35b34801561024057600080fd5b5061025b60048036038101906102569190612319565b6107e8565b60405161026891906127c7565b60405180910390f35b34801561027d57600080fd5b50610298600480360381019061029391906122cc565b61082e565b005b3480156102a657600080fd5b506102c160048036038101906102bc9190612205565b610844565b005b3480156102cf57600080fd5b506102d861095c565b6040516102e59190612ae6565b60405180910390f35b3480156102fa57600080fd5b50610315600480360381019061031091906120ef565b610962565b005b34801561032357600080fd5b5061032c6109c2565b005b34801561033a57600080fd5b50610355600480360381019061035091906120ef565b610a9b565b005b34801561036357600080fd5b5061036c610abb565b6040516103799190612ae6565b60405180910390f35b34801561038e57600080fd5b506103a960048036038101906103a49190612319565b610ac1565b6040516103b691906127c7565b60405180910390f35b3480156103cb57600080fd5b506103d4610b73565b6040516103e19190612ae6565b60405180910390f35b3480156103f657600080fd5b50610411600480360381019061040c9190612082565b610b79565b60405161041e9190612ae6565b60405180910390f35b34801561043357600080fd5b5061043c610c31565b005b34801561044a57600080fd5b50610453610c45565b60405161046091906127e2565b60405180910390f35b34801561047557600080fd5b5061047e610c6b565b60405161048b91906127c7565b60405180910390f35b3480156104a057600080fd5b506104a9610c95565b6040516104b69190612864565b60405180910390f35b6104d960048036038101906104d49190612319565b610d27565b005b3480156104e757600080fd5b5061050260048036038101906104fd91906121c5565b610efe565b005b34801561051057600080fd5b5061052b60048036038101906105269190612142565b610f14565b005b34801561053957600080fd5b50610554600480360381019061054f9190612245565b610f76565b005b34801561056257600080fd5b5061057d60048036038101906105789190612319565b610f9b565b60405161058a9190612864565b60405180910390f35b34801561059f57600080fd5b506105a8611017565b6040516105b59190612ae6565b60405180910390f35b3480156105ca57600080fd5b506105e560048036038101906105e091906120af565b61101d565b6040516105f29190612849565b60405180910390f35b34801561060757600080fd5b50610622600480360381019061061d9190612082565b6110b1565b60405161062f9190612ae6565b60405180910390f35b34801561064457600080fd5b5061065f600480360381019061065a9190612082565b6110c9565b005b600b60009054906101000a900460ff1681565b60007f80ac58cd000000000000000000000000000000000000000000000000000000007bffffffffffffffffffffffffffffffffffffffffffffffffffffffff1916827bffffffffffffffffffffffffffffffffffffffffffffffffffffffff1916148061073f57507f5b5e139f000000000000000000000000000000000000000000000000000000007bffffffffffffffffffffffffffffffffffffffffffffffffffffffff1916827bffffffffffffffffffffffffffffffffffffffffffffffffffffffff1916145b8061074f575061074e8261114d565b5b9050919050565b60606000805461076590612d97565b80601f016020809104026020016040519081016040528092919081815260200182805461079190612d97565b80156107de5780601f106107b3576101008083540402835291602001916107de565b820191906000526020600020905b8154815290600101906020018083116107c157829003601f168201915b5050505050905090565b60006107f3826111b7565b6004600083815260200190815260200160002060009054906101000a900473ffffffffffffffffffffffffffffffffffffffff169050919050565b8181600c919061083f929190611eb0565b505050565b600061084f82610ac1565b90508073ffffffffffffffffffffffffffffffffffffffff168373ffffffffffffffffffffffffffffffffffffffff1614156108c0576040517f08c379a00000000000000000000000000000000000000000000000000000000081526004016108b790612a46565b60405180910390fd5b8073ffffffffffffffffffffffffffffffffffffffff166108df611202565b73ffffffffffffffffffffffffffffffffffffffff16148061090e575061090d81610908611202565b61101d565b5b61094d576040517f08c379a0000000000000000000000000000000000000000000000000000000008152600401610944906129a6565b60405180910390fd5b610957838361120a565b505050565b60085481565b61097361096d611202565b826112c3565b6109b2576040517f08c379a00000000000000000000000000000000000000000000000000000000081526004016109a990612a86565b60405180910390fd5b6109bd838383611358565b505050565b6109ca6115bf565b6000600d60009054906101000a900473ffffffffffffffffffffffffffffffffffffffff1673ffffffffffffffffffffffffffffffffffffffff1647604051610a12906127b2565b60006040518083038185875af1925050503d8060008114610a4f576040519150601f19603f3d011682016040523d82523d6000602084013e610a54565b606091505b5050905080610a98576040517f08c379a0000000000000000000000000000000000000000000000000000000008152600401610a8f906128a6565b60405180910390fd5b50565b610ab683838360405180602001604052806000815250610f14565b505050565b600a5481565b6000806002600084815260200190815260200160002060009054906101000a900473ffffffffffffffffffffffffffffffffffffffff169050600073ffffffffffffffffffffffffffffffffffffffff168173ffffffffffffffffffffffffffffffffffffffff161415610b6a576040517f08c379a0000000000000000000000000000000000000000000000000000000008152600401610b6190612a26565b60405180910390fd5b80915050919050565b60075481565b60008073ffffffffffffffffffffffffffffffffffffffff168273ffffffffffffffffffffffffffffffffffffffff161415610bea576040517f08c379a0000000000000000000000000000000000000000000000000000000008152600401610be190612966565b60405180910390fd5b600360008373ffffffffffffffffffffffffffffffffffffffff1673ffffffffffffffffffffffffffffffffffffffff168152602001908152602001600020549050919050565b610c396115bf565b610c43600061163d565b565b600d60009054906101000a900473ffffffffffffffffffffffffffffffffffffffff1681565b6000600660009054906101000a900473ffffffffffffffffffffffffffffffffffffffff16905090565b606060018054610ca490612d97565b80601f0160208091040260200160405190810160405280929190818152602001828054610cd090612d97565b8015610d1d5780601f10610cf257610100808354040283529160200191610d1d565b820191906000526020600020905b815481529060010190602001808311610d0057829003601f168201915b5050505050905090565b600b60009054906101000a900460ff16610d76576040517f08c379a0000000000000000000000000000000000000000000000000000000008152600401610d6d90612a66565b60405180910390fd5b60075481610d849190612c41565b3414610dc5576040517f08c379a0000000000000000000000000000000000000000000000000000000008152600401610dbc90612986565b60405180910390fd5b60095481600854610dd69190612bba565b1115610e17576040517f08c379a0000000000000000000000000000000000000000000000000000000008152600401610e0e90612ac6565b60405180910390fd5b600a5481600e60003373ffffffffffffffffffffffffffffffffffffffff1673ffffffffffffffffffffffffffffffffffffffff16815260200190815260200160002054610e659190612bba565b1115610ea6576040517f08c379a0000000000000000000000000000000000000000000000000000000008152600401610e9d90612a06565b60405180910390fd5b60005b81811015610efa5760006001600854610ec29190612bba565b905060086000815480929190610ed790612dfa565b9190505550610ee63382611703565b508080610ef290612dfa565b915050610ea9565b5050565b610f10610f09611202565b8383611721565b5050565b610f25610f1f611202565b836112c3565b610f64576040517f08c379a0000000000000000000000000000000000000000000000000000000008152600401610f5b90612a86565b60405180910390fd5b610f708484848461188e565b50505050565b610f7e6115bf565b80600b60006101000a81548160ff02191690831515021790555050565b6060610fa6826118ea565b610fe5576040517f08c379a0000000000000000000000000000000000000000000000000000000008152600401610fdc90612aa6565b60405180910390fd5b600c610ff083611956565b604051602001611001929190612783565b6040516020818303038152906040529050919050565b60095481565b6000600560008473ffffffffffffffffffffffffffffffffffffffff1673ffffffffffffffffffffffffffffffffffffffff16815260200190815260200160002060008373ffffffffffffffffffffffffffffffffffffffff1673ffffffffffffffffffffffffffffffffffffffff16815260200190815260200160002060009054906101000a900460ff16905092915050565b600e6020528060005260406000206000915090505481565b6110d16115bf565b600073ffffffffffffffffffffffffffffffffffffffff168173ffffffffffffffffffffffffffffffffffffffff161415611141576040517f08c379a0000000000000000000000000000000000000000000000000000000008152600401611138906128c6565b60405180910390fd5b61114a8161163d565b50565b60007f01ffc9a7000000000000000000000000000000000000000000000000000000007bffffffffffffffffffffffffffffffffffffffffffffffffffffffff1916827bffffffffffffffffffffffffffffffffffffffffffffffffffffffff1916149050919050565b6111c0816118ea565b6111ff576040517f08c379a00000000000000000000000000000000000000000000000000000000081526004016111f690612a26565b60405180910390fd5b50565b600033905090565b816004600083815260200190815260200160002060006101000a81548173ffffffffffffffffffffffffffffffffffffffff021916908373ffffffffffffffffffffffffffffffffffffffff160217905550808273ffffffffffffffffffffffffffffffffffffffff1661127d83610ac1565b73ffffffffffffffffffffffffffffffffffffffff167f8c5be1e5ebec7d5bd14f71427d1e84f3dd0314c0f7b2291e5b200ac8c7c3b92560405160405180910390a45050565b6000806112cf83610ac1565b90508073ffffffffffffffffffffffffffffffffffffffff168473ffffffffffffffffffffffffffffffffffffffff1614806113115750611310818561101d565b5b8061134f57508373ffffffffffffffffffffffffffffffffffffffff16611337846107e8565b73ffffffffffffffffffffffffffffffffffffffff16145b91505092915050565b8273ffffffffffffffffffffffffffffffffffffffff1661137882610ac1565b73ffffffffffffffffffffffffffffffffffffffff16146113ce576040517f08c379a00000000000000000000000000000000000000000000000000000000081526004016113c5906128e6565b60405180910390fd5b600073ffffffffffffffffffffffffffffffffffffffff168273ffffffffffffffffffffffffffffffffffffffff16141561143e576040517f08c379a000000000000000000000000000000000000000000000000000000000815260040161143590612926565b60405180910390fd5b611449838383611ab7565b61145460008261120a565b6001600360008573ffffffffffffffffffffffffffffffffffffffff1673ffffffffffffffffffffffffffffffffffffffff16815260200190815260200160002060008282546114a49190612c9b565b925050819055506001600360008473ffffffffffffffffffffffffffffffffffffffff1673ffffffffffffffffffffffffffffffffffffffff16815260200190815260200160002060008282546114fb9190612bba565b92505081905550816002600083815260200190815260200160002060006101000a81548173ffffffffffffffffffffffffffffffffffffffff021916908373ffffffffffffffffffffffffffffffffffffffff160217905550808273ffffffffffffffffffffffffffffffffffffffff168473ffffffffffffffffffffffffffffffffffffffff167fddf252ad1be2c89b69c2b068fc378daa952ba7f163c4a11628f55a4df523b3ef60405160405180910390a46115ba838383611abc565b505050565b6115c7611202565b73ffffffffffffffffffffffffffffffffffffffff166115e5610c6b565b73ffffffffffffffffffffffffffffffffffffffff161461163b576040517f08c379a0000000000000000000000000000000000000000000000000000000008152600401611632906129e6565b60405180910390fd5b565b6000600660009054906101000a900473ffffffffffffffffffffffffffffffffffffffff16905081600660006101000a81548173ffffffffffffffffffffffffffffffffffffffff021916908373ffffffffffffffffffffffffffffffffffffffff1602179055508173ffffffffffffffffffffffffffffffffffffffff168173ffffffffffffffffffffffffffffffffffffffff167f8be0079c531659141344cd1fd0a4f28419497f9722a3daafe3b4186f6b6457e060405160405180910390a35050565b61171d828260405180602001604052806000815250611ac1565b5050565b8173ffffffffffffffffffffffffffffffffffffffff168373ffffffffffffffffffffffffffffffffffffffff161415611790576040517f08c379a000000000000000000000000000000000000000000000000000000000815260040161178790612946565b60405180910390fd5b80600560008573ffffffffffffffffffffffffffffffffffffffff1673ffffffffffffffffffffffffffffffffffffffff16815260200190815260200160002060008473ffffffffffffffffffffffffffffffffffffffff1673ffffffffffffffffffffffffffffffffffffffff16815260200190815260200160002060006101000a81548160ff0219169083151502179055508173ffffffffffffffffffffffffffffffffffffffff168373ffffffffffffffffffffffffffffffffffffffff167f17307eab39ab6107e8899845ad3d59bd9653f200f220920489ca2b5937696c31836040516118819190612849565b60405180910390a3505050565b611899848484611358565b6118a584848484611b1c565b6118e4576040517f08c379a00000000000000000000000000000000000000000000000000000000081526004016118db90612886565b60405180910390fd5b50505050565b60008073ffffffffffffffffffffffffffffffffffffffff166002600084815260200190815260200160002060009054906101000a900473ffffffffffffffffffffffffffffffffffffffff1673ffffffffffffffffffffffffffffffffffffffff1614159050919050565b6060600082141561199e576040518060400160405280600181526020017f30000000000000000000000000000000000000000000000000000000000000008152509050611ab2565b600082905060005b600082146119d05780806119b990612dfa565b915050600a826119c99190612c10565b91506119a6565b60008167ffffffffffffffff8111156119ec576119eb612f30565b5b6040519080825280601f01601f191660200182016040528015611a1e5781602001600182028036833780820191505090505b5090505b60008514611aab57600182611a379190612c9b565b9150600a85611a469190612e43565b6030611a529190612bba565b60f81b818381518110611a6857611a67612f01565b5b60200101907effffffffffffffffffffffffffffffffffffffffffffffffffffffffffffff1916908160001a905350600a85611aa49190612c10565b9450611a22565b8093505050505b919050565b505050565b505050565b611acb8383611cb3565b611ad86000848484611b1c565b611b17576040517f08c379a0000000000000000000000000000000000000000000000000000000008152600401611b0e90612886565b60405180910390fd5b505050565b6000611b3d8473ffffffffffffffffffffffffffffffffffffffff16611e8d565b15611ca6578373ffffffffffffffffffffffffffffffffffffffff1663150b7a02611b66611202565b8786866040518563ffffffff1660e01b8152600401611b8894939291906127fd565b602060405180830381600087803b158015611ba257600080fd5b505af1925050508015611bd357506040513d601f19601f82011682018060405250810190611bd0919061229f565b60015b611c56573d8060008114611c03576040519150601f19603f3d011682016040523d82523d6000602084013e611c08565b606091505b50600081511415611c4e576040517f08c379a0000000000000000000000000000000000000000000000000000000008152600401611c4590612886565b60405180910390fd5b805181602001fd5b63150b7a0260e01b7bffffffffffffffffffffffffffffffffffffffffffffffffffffffff1916817bffffffffffffffffffffffffffffffffffffffffffffffffffffffff191614915050611cab565b600190505b949350505050565b600073ffffffffffffffffffffffffffffffffffffffff168273ffffffffffffffffffffffffffffffffffffffff161415611d23576040517f08c379a0000000000000000000000000000000000000000000000000000000008152600401611d1a906129c6565b60405180910390fd5b611d2c816118ea565b15611d6c576040517f08c379a0000000000000000000000000000000000000000000000000000000008152600401611d6390612906565b60405180910390fd5b611d7860008383611ab7565b6001600360008473ffffffffffffffffffffffffffffffffffffffff1673ffffffffffffffffffffffffffffffffffffffff1681526020019081526020016000206000828254611dc89190612bba565b92505081905550816002600083815260200190815260200160002060006101000a81548173ffffffffffffffffffffffffffffffffffffffff021916908373ffffffffffffffffffffffffffffffffffffffff160217905550808273ffffffffffffffffffffffffffffffffffffffff16600073ffffffffffffffffffffffffffffffffffffffff167fddf252ad1be2c89b69c2b068fc378daa952ba7f163c4a11628f55a4df523b3ef60405160405180910390a4611e8960008383611abc565b5050565b6000808273ffffffffffffffffffffffffffffffffffffffff163b119050919050565b828054611ebc90612d97565b90600052602060002090601f016020900481019282611ede5760008555611f25565b82601f10611ef757803560ff1916838001178555611f25565b82800160010185558215611f25579182015b82811115611f24578235825591602001919060010190611f09565b5b509050611f329190611f36565b5090565b5b80821115611f4f576000816000905550600101611f37565b5090565b6000611f66611f6184612b26565b612b01565b905082815260208101848484011115611f8257611f81612f6e565b5b611f8d848285612d55565b509392505050565b600081359050611fa4816133f5565b92915050565b600081359050611fb98161340c565b92915050565b600081359050611fce81613423565b92915050565b600081519050611fe381613423565b92915050565b600082601f830112611ffe57611ffd612f64565b5b813561200e848260208601611f53565b91505092915050565b60008083601f84011261202d5761202c612f64565b5b8235905067ffffffffffffffff81111561204a57612049612f5f565b5b60208301915083600182028301111561206657612065612f69565b5b9250929050565b60008135905061207c8161343a565b92915050565b60006020828403121561209857612097612f78565b5b60006120a684828501611f95565b91505092915050565b600080604083850312156120c6576120c5612f78565b5b60006120d485828601611f95565b92505060206120e585828601611f95565b9150509250929050565b60008060006060848603121561210857612107612f78565b5b600061211686828701611f95565b935050602061212786828701611f95565b92505060406121388682870161206d565b9150509250925092565b6000806000806080858703121561215c5761215b612f78565b5b600061216a87828801611f95565b945050602061217b87828801611f95565b935050604061218c8782880161206d565b925050606085013567ffffffffffffffff8111156121ad576121ac612f73565b5b6121b987828801611fe9565b91505092959194509250565b600080604083850312156121dc576121db612f78565b5b60006121ea85828601611f95565b92505060206121fb85828601611faa565b9150509250929050565b6000806040838503121561221c5761221b612f78565b5b600061222a85828601611f95565b925050602061223b8582860161206d565b9150509250929050565b60006020828403121561225b5761225a612f78565b5b600061226984828501611faa565b91505092915050565b60006020828403121561228857612287612f78565b5b600061229684828501611fbf565b91505092915050565b6000602082840312156122b5576122b4612f78565b5b60006122c384828501611fd4565b91505092915050565b600080602083850312156122e3576122e2612f78565b5b600083013567ffffffffffffffff81111561230157612300612f73565b5b61230d85828601612017565b92509250509250929050565b60006020828403121561232f5761232e612f78565b5b600061233d8482850161206d565b91505092915050565b61234f81612ce1565b82525050565b61235e81612ccf565b82525050565b61236d81612cf3565b82525050565b600061237e82612b6c565b6123888185612b82565b9350612398818560208601612d64565b6123a181612f7d565b840191505092915050565b60006123b782612b77565b6123c18185612b9e565b93506123d1818560208601612d64565b6123da81612f7d565b840191505092915050565b60006123f082612b77565b6123fa8185612baf565b935061240a818560208601612d64565b80840191505092915050565b6000815461242381612d97565b61242d8186612baf565b9450600182166000811461244857600181146124595761248c565b60ff1983168652818601935061248c565b61246285612b57565b60005b8381101561248457815481890152600182019150602081019050612465565b838801955050505b50505092915050565b60006124a2603283612b9e565b91506124ad82612f8e565b604082019050919050565b60006124c5601083612b9e565b91506124d082612fdd565b602082019050919050565b60006124e8602683612b9e565b91506124f382613006565b604082019050919050565b600061250b602583612b9e565b915061251682613055565b604082019050919050565b600061252e601c83612b9e565b9150612539826130a4565b602082019050919050565b6000612551602483612b9e565b915061255c826130cd565b604082019050919050565b6000612574601983612b9e565b915061257f8261311c565b602082019050919050565b6000612597602983612b9e565b91506125a282613145565b604082019050919050565b60006125ba601183612b9e565b91506125c582613194565b602082019050919050565b60006125dd603e83612b9e565b91506125e8826131bd565b604082019050919050565b6000612600602083612b9e565b915061260b8261320c565b602082019050919050565b6000612623600583612baf565b915061262e82613235565b600582019050919050565b6000612646602083612b9e565b91506126518261325e565b602082019050919050565b6000612669601283612b9e565b915061267482613287565b602082019050919050565b600061268c601883612b9e565b9150612697826132b0565b602082019050919050565b60006126af602183612b9e565b91506126ba826132d9565b604082019050919050565b60006126d2600083612b93565b91506126dd82613328565b600082019050919050565b60006126f5601583612b9e565b91506127008261332b565b602082019050919050565b6000612718602e83612b9e565b915061272382613354565b604082019050919050565b600061273b601583612b9e565b9150612746826133a3565b602082019050919050565b600061275e600983612b9e565b9150612769826133cc565b602082019050919050565b61277d81612d4b565b82525050565b600061278f8285612416565b915061279b82846123e5565b91506127a682612616565b91508190509392505050565b60006127bd826126c5565b9150819050919050565b60006020820190506127dc6000830184612355565b92915050565b60006020820190506127f76000830184612346565b92915050565b60006080820190506128126000830187612355565b61281f6020830186612355565b61282c6040830185612774565b818103606083015261283e8184612373565b905095945050505050565b600060208201905061285e6000830184612364565b92915050565b6000602082019050818103600083015261287e81846123ac565b905092915050565b6000602082019050818103600083015261289f81612495565b9050919050565b600060208201905081810360008301526128bf816124b8565b9050919050565b600060208201905081810360008301526128df816124db565b9050919050565b600060208201905081810360008301526128ff816124fe565b9050919050565b6000602082019050818103600083015261291f81612521565b9050919050565b6000602082019050818103600083015261293f81612544565b9050919050565b6000602082019050818103600083015261295f81612567565b9050919050565b6000602082019050818103600083015261297f8161258a565b9050919050565b6000602082019050818103600083015261299f816125ad565b9050919050565b600060208201905081810360008301526129bf816125d0565b9050919050565b600060208201905081810360008301526129df816125f3565b9050919050565b600060208201905081810360008301526129ff81612639565b9050919050565b60006020820190508181036000830152612a1f8161265c565b9050919050565b60006020820190508181036000830152612a3f8161267f565b9050919050565b60006020820190508181036000830152612a5f816126a2565b9050919050565b60006020820190508181036000830152612a7f816126e8565b9050919050565b60006020820190508181036000830152612a9f8161270b565b9050919050565b60006020820190508181036000830152612abf8161272e565b9050919050565b60006020820190508181036000830152612adf81612751565b9050919050565b6000602082019050612afb6000830184612774565b92915050565b6000612b0b612b1c565b9050612b178282612dc9565b919050565b6000604051905090565b600067ffffffffffffffff821115612b4157612b40612f30565b5b612b4a82612f7d565b9050602081019050919050565b60008190508160005260206000209050919050565b600081519050919050565b600081519050919050565b600082825260208201905092915050565b600081905092915050565b600082825260208201905092915050565b600081905092915050565b6000612bc582612d4b565b9150612bd083612d4b565b9250827fffffffffffffffffffffffffffffffffffffffffffffffffffffffffffffffff03821115612c0557612c04612e74565b5b828201905092915050565b6000612c1b82612d4b565b9150612c2683612d4b565b925082612c3657612c35612ea3565b5b828204905092915050565b6000612c4c82612d4b565b9150612c5783612d4b565b9250817fffffffffffffffffffffffffffffffffffffffffffffffffffffffffffffffff0483118215151615612c9057612c8f612e74565b5b828202905092915050565b6000612ca682612d4b565b9150612cb183612d4b565b925082821015612cc457612cc3612e74565b5b828203905092915050565b6000612cda82612d2b565b9050919050565b6000612cec82612d2b565b9050919050565b60008115159050919050565b60007fffffffff0000000000000000000000000000000000000000000000000000000082169050919050565b600073ffffffffffffffffffffffffffffffffffffffff82169050919050565b6000819050919050565b82818337600083830152505050565b60005b83811015612d82578082015181840152602081019050612d67565b83811115612d91576000848401525b50505050565b60006002820490506001821680612daf57607f821691505b60208210811415612dc357612dc2612ed2565b5b50919050565b612dd282612f7d565b810181811067ffffffffffffffff82111715612df157612df0612f30565b5b80604052505050565b6000612e0582612d4b565b91507fffffffffffffffffffffffffffffffffffffffffffffffffffffffffffffffff821415612e3857612e37612e74565b5b600182019050919050565b6000612e4e82612d4b565b9150612e5983612d4b565b925082612e6957612e68612ea3565b5b828206905092915050565b7f4e487b7100000000000000000000000000000000000000000000000000000000600052601160045260246000fd5b7f4e487b7100000000000000000000000000000000000000000000000000000000600052601260045260246000fd5b7f4e487b7100000000000000000000000000000000000000000000000000000000600052602260045260246000fd5b7f4e487b7100000000000000000000000000000000000000000000000000000000600052603260045260246000fd5b7f4e487b7100000000000000000000000000000000000000000000000000000000600052604160045260246000fd5b600080fd5b600080fd5b600080fd5b600080fd5b600080fd5b600080fd5b6000601f19601f8301169050919050565b7f4552433732313a207472616e7366657220746f206e6f6e20455243373231526560008201527f63656976657220696d706c656d656e7465720000000000000000000000000000602082015250565b7f7769746864726177206661696c65642100000000000000000000000000000000600082015250565b7f4f776e61626c653a206e6577206f776e657220697320746865207a65726f206160008201527f6464726573730000000000000000000000000000000000000000000000000000602082015250565b7f4552433732313a207472616e736665722066726f6d20696e636f72726563742060008201527f6f776e6572000000000000000000000000000000000000000000000000000000602082015250565b7f4552433732313a20746f6b656e20616c7265616479206d696e74656400000000600082015250565b7f4552433732313a207472616e7366657220746f20746865207a65726f2061646460008201527f7265737300000000000000000000000000000000000000000000000000000000602082015250565b7f4552433732313a20617070726f766520746f2063616c6c657200000000000000600082015250565b7f4552433732313a2061646472657373207a65726f206973206e6f74206120766160008201527f6c6964206f776e65720000000000000000000000000000000000000000000000602082015250565b7f77726f6e67206d696e742076616c756521000000000000000000000000000000600082015250565b7f4552433732313a20617070726f76652063616c6c6572206973206e6f7420746f60008201527f6b656e206f776e6572206e6f7220617070726f76656420666f7220616c6c0000602082015250565b7f4552433732313a206d696e7420746f20746865207a65726f2061646472657373600082015250565b7f2e6a736f6e000000000000000000000000000000000000000000000000000000600082015250565b7f4f776e61626c653a2063616c6c6572206973206e6f7420746865206f776e6572600082015250565b7f20657863656564206d61782077616c6c65740000000000000000000000000000600082015250565b7f4552433732313a20696e76616c696420746f6b656e2049440000000000000000600082015250565b7f4552433732313a20617070726f76616c20746f2063757272656e74206f776e6560008201527f7200000000000000000000000000000000000000000000000000000000000000602082015250565b50565b7f6d696e74206e6f74207374617274656420796574210000000000000000000000600082015250565b7f4552433732313a2063616c6c6572206973206e6f7420746f6b656e206f776e6560008201527f72206e6f7220617070726f766564000000000000000000000000000000000000602082015250565b7f546f6b656e20646f6573206e6f74206578697374210000000000000000000000600082015250565b7f736f6c64206f7574210000000000000000000000000000000000000000000000600082015250565b6133fe81612ccf565b811461340957600080fd5b50565b61341581612cf3565b811461342057600080fd5b50565b61342c81612cff565b811461343757600080fd5b50565b61344381612d4b565b811461344e57600080fd5b5056fea26469706673582212209cac6a30f916e39a83fad5adf03c289f2f622c69cfdef4254277515b3915828964736f6c63430008070033",
  "linkReferences": {},
  "deployedLinkReferences": {}
}